{
  "contractName": "StructStorage",
  "abi": [
    {
      "inputs": [],
      "stateMutability": "nonpayable",
      "type": "constructor"
    },
    {
      "anonymous": false,
      "inputs": [
        {
          "indexed": true,
          "internalType": "bytes32",
          "name": "role",
          "type": "bytes32"
        },
        {
          "indexed": true,
          "internalType": "bytes32",
          "name": "previousAdminRole",
          "type": "bytes32"
        },
        {
          "indexed": true,
          "internalType": "bytes32",
          "name": "newAdminRole",
          "type": "bytes32"
        }
      ],
      "name": "RoleAdminChanged",
      "type": "event"
    },
    {
      "anonymous": false,
      "inputs": [
        {
          "indexed": true,
          "internalType": "bytes32",
          "name": "role",
          "type": "bytes32"
        },
        {
          "indexed": true,
          "internalType": "address",
          "name": "account",
          "type": "address"
        },
        {
          "indexed": true,
          "internalType": "address",
          "name": "sender",
          "type": "address"
        }
      ],
      "name": "RoleGranted",
      "type": "event"
    },
    {
      "anonymous": false,
      "inputs": [
        {
          "indexed": true,
          "internalType": "bytes32",
          "name": "role",
          "type": "bytes32"
        },
        {
          "indexed": true,
          "internalType": "address",
          "name": "account",
          "type": "address"
        },
        {
          "indexed": true,
          "internalType": "address",
          "name": "sender",
          "type": "address"
        }
      ],
      "name": "RoleRevoked",
      "type": "event"
    },
    {
      "inputs": [],
      "name": "Admin_ROLE",
      "outputs": [
        {
          "internalType": "bytes32",
          "name": "",
          "type": "bytes32"
        }
      ],
      "stateMutability": "view",
      "type": "function"
    },
    {
      "inputs": [],
      "name": "DEFAULT_ADMIN_ROLE",
      "outputs": [
        {
          "internalType": "bytes32",
          "name": "",
          "type": "bytes32"
        }
      ],
      "stateMutability": "view",
      "type": "function"
    },
    {
      "inputs": [],
      "name": "Farmer_ROLE",
      "outputs": [
        {
          "internalType": "bytes32",
          "name": "",
          "type": "bytes32"
        }
      ],
      "stateMutability": "view",
      "type": "function"
    },
    {
      "inputs": [],
      "name": "Supplier_ROLE",
      "outputs": [
        {
          "internalType": "bytes32",
          "name": "",
          "type": "bytes32"
        }
      ],
      "stateMutability": "view",
      "type": "function"
    },
    {
      "inputs": [],
      "name": "Tester_ROLE",
      "outputs": [
        {
          "internalType": "bytes32",
          "name": "",
          "type": "bytes32"
        }
      ],
      "stateMutability": "view",
      "type": "function"
    },
    {
      "inputs": [
        {
          "internalType": "uint256",
          "name": "",
          "type": "uint256"
        }
      ],
      "name": "farmers",
      "outputs": [
        {
          "internalType": "address",
          "name": "",
          "type": "address"
        }
      ],
      "stateMutability": "view",
      "type": "function"
    },
    {
      "inputs": [
        {
          "internalType": "bytes32",
          "name": "role",
          "type": "bytes32"
        }
      ],
      "name": "getRoleAdmin",
      "outputs": [
        {
          "internalType": "bytes32",
          "name": "",
          "type": "bytes32"
        }
      ],
      "stateMutability": "view",
      "type": "function"
    },
    {
      "inputs": [
        {
          "internalType": "bytes32",
          "name": "role",
          "type": "bytes32"
        },
        {
          "internalType": "address",
          "name": "account",
          "type": "address"
        }
      ],
      "name": "hasRole",
      "outputs": [
        {
          "internalType": "bool",
          "name": "",
          "type": "bool"
        }
      ],
      "stateMutability": "view",
      "type": "function"
    },
    {
      "inputs": [
        {
          "internalType": "bytes32",
          "name": "role",
          "type": "bytes32"
        },
        {
          "internalType": "address",
          "name": "account",
          "type": "address"
        }
      ],
      "name": "renounceRole",
      "outputs": [],
      "stateMutability": "nonpayable",
      "type": "function"
    },
    {
      "inputs": [
        {
          "internalType": "bytes32",
          "name": "role",
          "type": "bytes32"
        },
        {
          "internalType": "address",
          "name": "account",
          "type": "address"
        }
      ],
      "name": "revokeRole",
      "outputs": [],
      "stateMutability": "nonpayable",
      "type": "function"
    },
    {
      "inputs": [],
      "name": "s",
      "outputs": [
        {
          "internalType": "uint256",
          "name": "",
          "type": "uint256"
        }
      ],
      "stateMutability": "view",
      "type": "function"
    },
    {
      "inputs": [
        {
          "internalType": "uint256",
          "name": "",
          "type": "uint256"
        }
      ],
      "name": "suppliers",
      "outputs": [
        {
          "internalType": "address",
          "name": "",
          "type": "address"
        }
      ],
      "stateMutability": "view",
      "type": "function"
    },
    {
      "inputs": [
        {
          "internalType": "bytes4",
          "name": "interfaceId",
          "type": "bytes4"
        }
      ],
      "name": "supportsInterface",
      "outputs": [
        {
          "internalType": "bool",
          "name": "",
          "type": "bool"
        }
      ],
      "stateMutability": "view",
      "type": "function"
    },
    {
      "inputs": [
        {
          "internalType": "bytes32",
          "name": "role",
          "type": "bytes32"
        },
        {
          "internalType": "address",
          "name": "account",
          "type": "address"
        }
      ],
      "name": "grantRole",
      "outputs": [],
      "stateMutability": "nonpayable",
      "type": "function"
    },
    {
      "inputs": [
        {
          "internalType": "string",
          "name": "name",
          "type": "string"
        },
        {
          "internalType": "string",
          "name": "loc",
          "type": "string"
        },
        {
          "internalType": "string",
          "name": "cr",
          "type": "string"
        },
        {
          "internalType": "uint256",
          "name": "con",
          "type": "uint256"
        },
        {
          "internalType": "uint256",
          "name": "q",
          "type": "uint256"
        },
        {
          "internalType": "uint256",
          "name": "pr",
          "type": "uint256"
        }
      ],
      "name": "Produce",
      "outputs": [],
      "stateMutability": "nonpayable",
      "type": "function"
    },
    {
      "inputs": [
        {
          "internalType": "address",
          "name": "f",
          "type": "address"
        }
      ],
      "name": "getproduce",
      "outputs": [
        {
          "components": [
            {
              "internalType": "uint256",
              "name": "product_id",
              "type": "uint256"
            },
            {
              "internalType": "string",
              "name": "fname",
              "type": "string"
            },
            {
              "internalType": "string",
              "name": "loc",
              "type": "string"
            },
            {
              "internalType": "string",
              "name": "crop",
              "type": "string"
            },
            {
              "internalType": "uint256",
              "name": "contact",
              "type": "uint256"
            },
            {
              "internalType": "uint256",
              "name": "quantity",
              "type": "uint256"
            },
            {
              "internalType": "uint256",
              "name": "exprice",
              "type": "uint256"
            },
            {
              "internalType": "enum StructStorage.State",
              "name": "status",
              "type": "uint8"
            },
            {
              "internalType": "string",
              "name": "grade",
              "type": "string"
            },
            {
              "internalType": "uint256",
              "name": "mrp",
              "type": "uint256"
            },
            {
              "internalType": "uint256",
              "name": "testdate",
              "type": "uint256"
            },
            {
              "internalType": "uint256",
              "name": "expdate",
              "type": "uint256"
            }
          ],
          "internalType": "struct StructStorage.farmer[]",
          "name": "",
          "type": "tuple[]"
        }
      ],
      "stateMutability": "view",
      "type": "function"
    },
    {
      "inputs": [],
      "name": "getFarmers",
      "outputs": [
        {
          "internalType": "address[]",
          "name": "",
          "type": "address[]"
        }
      ],
      "stateMutability": "view",
      "type": "function"
    },
    {
      "inputs": [],
      "name": "getSuppliers",
      "outputs": [
        {
          "internalType": "address[]",
          "name": "",
          "type": "address[]"
        }
      ],
      "stateMutability": "view",
      "type": "function"
    },
    {
      "inputs": [
        {
          "internalType": "uint256",
          "name": "id",
          "type": "uint256"
        },
        {
          "internalType": "address",
          "name": "_farmer",
          "type": "address"
        }
      ],
      "name": "Approve",
      "outputs": [],
      "stateMutability": "nonpayable",
      "type": "function"
    },
    {
      "inputs": [
        {
          "internalType": "address",
          "name": "_farmer",
          "type": "address"
        },
        {
          "internalType": "uint256",
          "name": "id",
          "type": "uint256"
        },
        {
          "internalType": "uint256",
          "name": "price",
          "type": "uint256"
        },
        {
          "internalType": "uint256",
          "name": "contact",
          "type": "uint256"
        },
        {
          "internalType": "uint256",
          "name": "qte",
          "type": "uint256"
        }
      ],
      "name": "Buy",
      "outputs": [],
      "stateMutability": "payable",
      "type": "function"
    }
  ],
  "bytecode": "0x608060405260006001553480156200001657600080fd5b50620000497fa729ef4e25027bc652fc8b5c4d1d902947361fa7c8e7b4905e877823f27331b3336200004f60201b60201c565b620001c8565b6200006182826200006560201b60201c565b5050565b6200007782826200015660201b60201c565b6200015257600160008084815260200190815260200160002060000160008373ffffffffffffffffffffffffffffffffffffffff1673ffffffffffffffffffffffffffffffffffffffff16815260200190815260200160002060006101000a81548160ff021916908315150217905550620000f7620001c060201b60201c565b73ffffffffffffffffffffffffffffffffffffffff168173ffffffffffffffffffffffffffffffffffffffff16837f2f8788117e7eff1d82e926ec794901d17c78024a50270940304540a733656f0d60405160405180910390a45b5050565b600080600084815260200190815260200160002060000160008373ffffffffffffffffffffffffffffffffffffffff1673ffffffffffffffffffffffffffffffffffffffff16815260200190815260200160002060009054906101000a900460ff16905092915050565b600033905090565b61300180620001d86000396000f3fe60806040526004361061011f5760003560e01c806370324289116100a0578063a217fddf11610064578063a217fddf146103dc578063cea2312114610407578063cf33c7f114610444578063d547741f14610481578063e0d88639146104aa5761011f565b806370324289146102e1578063789f8d401461030c57806386b714e2146103375780638afdd6691461036257806391d148541461039f5761011f565b806336568abe116100e757806336568abe1461020e578063435168321461023757806347ad3e4b146102625780636043981c1461028b5780636353ea0b146102b65761011f565b806301ffc9a7146101245780630411881914610161578063064fb1931461018c578063248a9ca3146101a85780632f2ff15d146101e5575b600080fd5b34801561013057600080fd5b5061014b60048036038101906101469190612454565b6104d3565b6040516101589190612a96565b60405180910390f35b34801561016d57600080fd5b5061017661054d565b6040516101839190612ab1565b60405180910390f35b6101a660048036038101906101a19190612378565b610571565b005b3480156101b457600080fd5b506101cf60048036038101906101ca91906123ef565b610b34565b6040516101dc9190612ab1565b60405180910390f35b3480156101f157600080fd5b5061020c60048036038101906102079190612418565b610b53565b005b34801561021a57600080fd5b5061023560048036038101906102309190612418565b610cb1565b005b34801561024357600080fd5b5061024c610d34565b6040516102599190612a52565b60405180910390f35b34801561026e57600080fd5b5061028960048036038101906102849190612577565b610dc2565b005b34801561029757600080fd5b506102a06113be565b6040516102ad9190612ab1565b60405180910390f35b3480156102c257600080fd5b506102cb6113e2565b6040516102d89190612ab1565b60405180910390f35b3480156102ed57600080fd5b506102f6611406565b6040516103039190612ab1565b60405180910390f35b34801561031857600080fd5b5061032161142a565b60405161032e9190612a52565b60405180910390f35b34801561034357600080fd5b5061034c6114b8565b6040516103599190612b2e565b60405180910390f35b34801561036e57600080fd5b506103896004803603810190610384919061254e565b6114be565b6040516103969190612a37565b60405180910390f35b3480156103ab57600080fd5b506103c660048036038101906103c19190612418565b6114fd565b6040516103d39190612a96565b60405180910390f35b3480156103e857600080fd5b506103f1611567565b6040516103fe9190612ab1565b60405180910390f35b34801561041357600080fd5b5061042e6004803603810190610429919061254e565b61156e565b60405161043b9190612a37565b60405180910390f35b34801561045057600080fd5b5061046b6004803603810190610466919061234f565b6115ad565b6040516104789190612a74565b60405180910390f35b34801561048d57600080fd5b506104a860048036038101906104a39190612418565b611961565b005b3480156104b657600080fd5b506104d160048036038101906104cc919061247d565b61198a565b005b60007f7965db0b000000000000000000000000000000000000000000000000000000007bffffffffffffffffffffffffffffffffffffffffffffffffffffffff1916827bffffffffffffffffffffffffffffffffffffffffffffffffffffffff19161480610546575061054582611c26565b5b9050919050565b7fa729ef4e25027bc652fc8b5c4d1d902947361fa7c8e7b4905e877823f27331b381565b7fb77c7d6bf62fa24fc205955093030c58325cd2d3d35fb486ede7594fb99635f56105a38161059e611c90565b611c98565b6000600260008873ffffffffffffffffffffffffffffffffffffffff1673ffffffffffffffffffffffffffffffffffffffff168152602001908152602001600020868154811061061c577f4e487b7100000000000000000000000000000000000000000000000000000000600052603260045260246000fd5b90600052602060002090600c0201604051806101800160405290816000820154815260200160018201805461065090612e13565b80601f016020809104026020016040519081016040528092919081815260200182805461067c90612e13565b80156106c95780601f1061069e576101008083540402835291602001916106c9565b820191906000526020600020905b8154815290600101906020018083116106ac57829003601f168201915b505050505081526020016002820180546106e290612e13565b80601f016020809104026020016040519081016040528092919081815260200182805461070e90612e13565b801561075b5780601f106107305761010080835404028352916020019161075b565b820191906000526020600020905b81548152906001019060200180831161073e57829003601f168201915b5050505050815260200160038201805461077490612e13565b80601f01602080910402602001604051908101604052809291908181526020018280546107a090612e13565b80156107ed5780601f106107c2576101008083540402835291602001916107ed565b820191906000526020600020905b8154815290600101906020018083116107d057829003601f168201915b505050505081526020016004820154815260200160058201548152602001600682015481526020016007820160009054906101000a900460ff16600281111561085f577f4e487b7100000000000000000000000000000000000000000000000000000000600052602160045260246000fd5b6002811115610897577f4e487b7100000000000000000000000000000000000000000000000000000000600052602160045260246000fd5b81526020016008820180546108ab90612e13565b80601f01602080910402602001604051908101604052809291908181526020018280546108d790612e13565b80156109245780601f106108f957610100808354040283529160200191610924565b820191906000526020600020905b81548152906001019060200180831161090757829003601f168201915b5050505050815260200160098201548152602001600a8201548152602001600b820154815250509050828160c0015161095d9190612caa565b34101561096957600080fd5b428161016001511080156109f15750600060028111156109b2577f4e487b7100000000000000000000000000000000000000000000000000000000600052602160045260246000fd5b8160e0015160028111156109ef577f4e487b7100000000000000000000000000000000000000000000000000000000600052602160045260246000fd5b145b8015610a015750828160a0015110155b610a0a57600080fd5b60006040518060e00160405280836000015181526020018360600151815260200186815260200185815260200187815260200183610100015181526020018361016001518152509050600360003373ffffffffffffffffffffffffffffffffffffffff1673ffffffffffffffffffffffffffffffffffffffff168152602001908152602001600020819080600181540180825580915050600190039060005260206000209060070201600090919091909150600082015181600001556020820151816001019080519060200190610ae29291906121f0565b5060408201518160020155606082015181600301556080820151816004015560a0820151816005019080519060200190610b1d9291906121f0565b5060c0820151816006015550505050505050505050565b6000806000838152602001908152602001600020600101549050919050565b7fa729ef4e25027bc652fc8b5c4d1d902947361fa7c8e7b4905e877823f27331b3610b8581610b80611c90565b611c98565b610b8f8383611d35565b7f4473bc4cca227a6bb6678e826347a766442caaa5b58eb00db63d083b4a882e69831415610c1f576004829080600181540180825580915050600190039060005260206000200160009091909190916101000a81548173ffffffffffffffffffffffffffffffffffffffff021916908373ffffffffffffffffffffffffffffffffffffffff160217905550610cac565b7fb77c7d6bf62fa24fc205955093030c58325cd2d3d35fb486ede7594fb99635f5831415610cab576005829080600181540180825580915050600190039060005260206000200160009091909190916101000a81548173ffffffffffffffffffffffffffffffffffffffff021916908373ffffffffffffffffffffffffffffffffffffffff1602179055505b5b505050565b610cb9611c90565b73ffffffffffffffffffffffffffffffffffffffff168173ffffffffffffffffffffffffffffffffffffffff1614610d26576040517f08c379a0000000000000000000000000000000000000000000000000000000008152600401610d1d90612b0e565b60405180910390fd5b610d308282611e15565b5050565b60606005805480602002602001604051908101604052809291908181526020018280548015610db857602002820191906000526020600020905b8160009054906101000a900473ffffffffffffffffffffffffffffffffffffffff1673ffffffffffffffffffffffffffffffffffffffff1681526020019060010190808311610d6e575b5050505050905090565b7fa1eec5a602ba6681850b894abe779021f2d7ff02781b32bfcefcf2143612f88b610df481610def611c90565b611c98565b6000600260008473ffffffffffffffffffffffffffffffffffffffff1673ffffffffffffffffffffffffffffffffffffffff1681526020019081526020016000208481548110610e6d577f4e487b7100000000000000000000000000000000000000000000000000000000600052603260045260246000fd5b90600052602060002090600c02016040518061018001604052908160008201548152602001600182018054610ea190612e13565b80601f0160208091040260200160405190810160405280929190818152602001828054610ecd90612e13565b8015610f1a5780601f10610eef57610100808354040283529160200191610f1a565b820191906000526020600020905b815481529060010190602001808311610efd57829003601f168201915b50505050508152602001600282018054610f3390612e13565b80601f0160208091040260200160405190810160405280929190818152602001828054610f5f90612e13565b8015610fac5780601f10610f8157610100808354040283529160200191610fac565b820191906000526020600020905b815481529060010190602001808311610f8f57829003601f168201915b50505050508152602001600382018054610fc590612e13565b80601f0160208091040260200160405190810160405280929190818152602001828054610ff190612e13565b801561103e5780601f106110135761010080835404028352916020019161103e565b820191906000526020600020905b81548152906001019060200180831161102157829003601f168201915b505050505081526020016004820154815260200160058201548152602001600682015481526020016007820160009054906101000a900460ff1660028111156110b0577f4e487b7100000000000000000000000000000000000000000000000000000000600052602160045260246000fd5b60028111156110e8577f4e487b7100000000000000000000000000000000000000000000000000000000600052602160045260246000fd5b81526020016008820180546110fc90612e13565b80601f016020809104026020016040519081016040528092919081815260200182805461112890612e13565b80156111755780601f1061114a57610100808354040283529160200191611175565b820191906000526020600020905b81548152906001019060200180831161115857829003601f168201915b5050505050815260200160098201548152602001600a8201548152602001600b82015481525050905060008160e0019060028111156111dd577f4e487b7100000000000000000000000000000000000000000000000000000000600052602160045260246000fd5b90816002811115611217577f4e487b7100000000000000000000000000000000000000000000000000000000600052602160045260246000fd5b8152505080600260008573ffffffffffffffffffffffffffffffffffffffff1673ffffffffffffffffffffffffffffffffffffffff1681526020019081526020016000208581548110611293577f4e487b7100000000000000000000000000000000000000000000000000000000600052603260045260246000fd5b90600052602060002090600c02016000820151816000015560208201518160010190805190602001906112c79291906121f0565b5060408201518160020190805190602001906112e49291906121f0565b5060608201518160030190805190602001906113019291906121f0565b506080820151816004015560a0820151816005015560c0820151816006015560e08201518160070160006101000a81548160ff02191690836002811115611371577f4e487b7100000000000000000000000000000000000000000000000000000000600052602160045260246000fd5b02179055506101008201518160080190805190602001906113939291906121f0565b50610120820151816009015561014082015181600a015561016082015181600b015590505050505050565b7f4473bc4cca227a6bb6678e826347a766442caaa5b58eb00db63d083b4a882e6981565b7fa1eec5a602ba6681850b894abe779021f2d7ff02781b32bfcefcf2143612f88b81565b7fb77c7d6bf62fa24fc205955093030c58325cd2d3d35fb486ede7594fb99635f581565b606060048054806020026020016040519081016040528092919081815260200182805480156114ae57602002820191906000526020600020905b8160009054906101000a900473ffffffffffffffffffffffffffffffffffffffff1673ffffffffffffffffffffffffffffffffffffffff1681526020019060010190808311611464575b5050505050905090565b60015481565b600481815481106114ce57600080fd5b906000526020600020016000915054906101000a900473ffffffffffffffffffffffffffffffffffffffff1681565b600080600084815260200190815260200160002060000160008373ffffffffffffffffffffffffffffffffffffffff1673ffffffffffffffffffffffffffffffffffffffff16815260200190815260200160002060009054906101000a900460ff16905092915050565b6000801b81565b6005818154811061157e57600080fd5b906000526020600020016000915054906101000a900473ffffffffffffffffffffffffffffffffffffffff1681565b6060600260008373ffffffffffffffffffffffffffffffffffffffff1673ffffffffffffffffffffffffffffffffffffffff168152602001908152602001600020805480602002602001604051908101604052809291908181526020016000905b8282101561195657838290600052602060002090600c0201604051806101800160405290816000820154815260200160018201805461164c90612e13565b80601f016020809104026020016040519081016040528092919081815260200182805461167890612e13565b80156116c55780601f1061169a576101008083540402835291602001916116c5565b820191906000526020600020905b8154815290600101906020018083116116a857829003601f168201915b505050505081526020016002820180546116de90612e13565b80601f016020809104026020016040519081016040528092919081815260200182805461170a90612e13565b80156117575780601f1061172c57610100808354040283529160200191611757565b820191906000526020600020905b81548152906001019060200180831161173a57829003601f168201915b5050505050815260200160038201805461177090612e13565b80601f016020809104026020016040519081016040528092919081815260200182805461179c90612e13565b80156117e95780601f106117be576101008083540402835291602001916117e9565b820191906000526020600020905b8154815290600101906020018083116117cc57829003601f168201915b505050505081526020016004820154815260200160058201548152602001600682015481526020016007820160009054906101000a900460ff16600281111561185b577f4e487b7100000000000000000000000000000000000000000000000000000000600052602160045260246000fd5b6002811115611893577f4e487b7100000000000000000000000000000000000000000000000000000000600052602160045260246000fd5b81526020016008820180546118a790612e13565b80601f01602080910402602001604051908101604052809291908181526020018280546118d390612e13565b80156119205780601f106118f557610100808354040283529160200191611920565b820191906000526020600020905b81548152906001019060200180831161190357829003601f168201915b5050505050815260200160098201548152602001600a8201548152602001600b820154815250508152602001906001019061160e565b505050509050919050565b61196a82610b34565b61197b81611976611c90565b611c98565b6119858383611e15565b505050565b7f4473bc4cca227a6bb6678e826347a766442caaa5b58eb00db63d083b4a882e696119bc816119b7611c90565b611c98565b6000604051806101800160405280600154815260200189815260200188815260200187815260200186815260200185815260200184815260200160016002811115611a30577f4e487b7100000000000000000000000000000000000000000000000000000000600052602160045260246000fd5b81526020016040518060400160405280600381526020017f4e614e00000000000000000000000000000000000000000000000000000000008152508152602001600081526020016000815260200160008152509050600260003373ffffffffffffffffffffffffffffffffffffffff1673ffffffffffffffffffffffffffffffffffffffff1681526020019081526020016000208190806001815401808255809150506001900390600052602060002090600c0201600090919091909150600082015181600001556020820151816001019080519060200190611b149291906121f0565b506040820151816002019080519060200190611b319291906121f0565b506060820151816003019080519060200190611b4e9291906121f0565b506080820151816004015560a0820151816005015560c0820151816006015560e08201518160070160006101000a81548160ff02191690836002811115611bbe577f4e487b7100000000000000000000000000000000000000000000000000000000600052602160045260246000fd5b0217905550610100820151816008019080519060200190611be09291906121f0565b50610120820151816009015561014082015181600a015561016082015181600b0155505060016000815480929190611c1790612e45565b91905055505050505050505050565b60007f01ffc9a7000000000000000000000000000000000000000000000000000000007bffffffffffffffffffffffffffffffffffffffffffffffffffffffff1916827bffffffffffffffffffffffffffffffffffffffffffffffffffffffff1916149050919050565b600033905090565b611ca282826114fd565b611d3157611cc78173ffffffffffffffffffffffffffffffffffffffff166014611ef6565b611cd58360001c6020611ef6565b604051602001611ce69291906129fd565b6040516020818303038152906040526040517f08c379a0000000000000000000000000000000000000000000000000000000008152600401611d289190612acc565b60405180910390fd5b5050565b611d3f82826114fd565b611e1157600160008084815260200190815260200160002060000160008373ffffffffffffffffffffffffffffffffffffffff1673ffffffffffffffffffffffffffffffffffffffff16815260200190815260200160002060006101000a81548160ff021916908315150217905550611db6611c90565b73ffffffffffffffffffffffffffffffffffffffff168173ffffffffffffffffffffffffffffffffffffffff16837f2f8788117e7eff1d82e926ec794901d17c78024a50270940304540a733656f0d60405160405180910390a45b5050565b611e1f82826114fd565b15611ef257600080600084815260200190815260200160002060000160008373ffffffffffffffffffffffffffffffffffffffff1673ffffffffffffffffffffffffffffffffffffffff16815260200190815260200160002060006101000a81548160ff021916908315150217905550611e97611c90565b73ffffffffffffffffffffffffffffffffffffffff168173ffffffffffffffffffffffffffffffffffffffff16837ff6391f5c32d9c69d2a47ea670b442974b53935d1edc7fd64eb21e047a839171b60405160405180910390a45b5050565b606060006002836002611f099190612caa565b611f139190612c54565b67ffffffffffffffff811115611f52577f4e487b7100000000000000000000000000000000000000000000000000000000600052604160045260246000fd5b6040519080825280601f01601f191660200182016040528015611f845781602001600182028036833780820191505090505b5090507f300000000000000000000000000000000000000000000000000000000000000081600081518110611fe2577f4e487b7100000000000000000000000000000000000000000000000000000000600052603260045260246000fd5b60200101907effffffffffffffffffffffffffffffffffffffffffffffffffffffffffffff1916908160001a9053507f78000000000000000000000000000000000000000000000000000000000000008160018151811061206c577f4e487b7100000000000000000000000000000000000000000000000000000000600052603260045260246000fd5b60200101907effffffffffffffffffffffffffffffffffffffffffffffffffffffffffffff1916908160001a905350600060018460026120ac9190612caa565b6120b69190612c54565b90505b60018111156121a2577f3031323334353637383961626364656600000000000000000000000000000000600f86166010811061211e577f4e487b7100000000000000000000000000000000000000000000000000000000600052603260045260246000fd5b1a60f81b82828151811061215b577f4e487b7100000000000000000000000000000000000000000000000000000000600052603260045260246000fd5b60200101907effffffffffffffffffffffffffffffffffffffffffffffffffffffffffffff1916908160001a905350600485901c94508061219b90612de9565b90506120b9565b50600084146121e6576040517f08c379a00000000000000000000000000000000000000000000000000000000081526004016121dd90612aee565b60405180910390fd5b8091505092915050565b8280546121fc90612e13565b90600052602060002090601f01602090048101928261221e5760008555612265565b82601f1061223757805160ff1916838001178555612265565b82800160010185558215612265579182015b82811115612264578251825591602001919060010190612249565b5b5090506122729190612276565b5090565b5b8082111561228f576000816000905550600101612277565b5090565b60006122a66122a184612b7a565b612b49565b9050828152602081018484840111156122be57600080fd5b6122c9848285612da7565b509392505050565b6000813590506122e081612f6f565b92915050565b6000813590506122f581612f86565b92915050565b60008135905061230a81612f9d565b92915050565b600082601f83011261232157600080fd5b8135612331848260208601612293565b91505092915050565b60008135905061234981612fb4565b92915050565b60006020828403121561236157600080fd5b600061236f848285016122d1565b91505092915050565b600080600080600060a0868803121561239057600080fd5b600061239e888289016122d1565b95505060206123af8882890161233a565b94505060406123c08882890161233a565b93505060606123d18882890161233a565b92505060806123e28882890161233a565b9150509295509295909350565b60006020828403121561240157600080fd5b600061240f848285016122e6565b91505092915050565b6000806040838503121561242b57600080fd5b6000612439858286016122e6565b925050602061244a858286016122d1565b9150509250929050565b60006020828403121561246657600080fd5b6000612474848285016122fb565b91505092915050565b60008060008060008060c0878903121561249657600080fd5b600087013567ffffffffffffffff8111156124b057600080fd5b6124bc89828a01612310565b965050602087013567ffffffffffffffff8111156124d957600080fd5b6124e589828a01612310565b955050604087013567ffffffffffffffff81111561250257600080fd5b61250e89828a01612310565b945050606061251f89828a0161233a565b935050608061253089828a0161233a565b92505060a061254189828a0161233a565b9150509295509295509295565b60006020828403121561256057600080fd5b600061256e8482850161233a565b91505092915050565b6000806040838503121561258a57600080fd5b60006125988582860161233a565b92505060206125a9858286016122d1565b9150509250929050565b60006125bf83836125df565b60208301905092915050565b60006125d783836128c6565b905092915050565b6125e881612d04565b82525050565b6125f781612d04565b82525050565b600061260882612bca565b6126128185612c05565b935061261d83612baa565b8060005b8381101561264e57815161263588826125b3565b975061264083612beb565b925050600181019050612621565b5085935050505092915050565b600061266682612bd5565b6126708185612c16565b93508360208202850161268285612bba565b8060005b858110156126be578484038952815161269f85826125cb565b94506126aa83612bf8565b925060208a01995050600181019050612686565b50829750879550505050505092915050565b6126d981612d16565b82525050565b6126e881612d22565b82525050565b6126f781612d95565b82525050565b600061270882612be0565b6127128185612c27565b9350612722818560208601612db6565b61272b81612f4a565b840191505092915050565b600061274182612be0565b61274b8185612c38565b935061275b818560208601612db6565b61276481612f4a565b840191505092915050565b600061277a82612be0565b6127848185612c49565b9350612794818560208601612db6565b80840191505092915050565b60006127ad602083612c38565b91507f537472696e67733a20686578206c656e67746820696e73756666696369656e746000830152602082019050919050565b60006127ed601783612c49565b91507f416363657373436f6e74726f6c3a206163636f756e74200000000000000000006000830152601782019050919050565b600061282d601183612c49565b91507f206973206d697373696e6720726f6c65200000000000000000000000000000006000830152601182019050919050565b600061286d602f83612c38565b91507f416363657373436f6e74726f6c3a2063616e206f6e6c792072656e6f756e636560008301527f20726f6c657320666f722073656c6600000000000000000000000000000000006020830152604082019050919050565b6000610180830160008301516128df60008601826129df565b50602083015184820360208601526128f782826126fd565b9150506040830151848203604086015261291182826126fd565b9150506060830151848203606086015261292b82826126fd565b915050608083015161294060808601826129df565b5060a083015161295360a08601826129df565b5060c083015161296660c08601826129df565b5060e083015161297960e08601826126ee565b5061010083015184820361010086015261299382826126fd565b9150506101208301516129aa6101208601826129df565b506101408301516129bf6101408601826129df565b506101608301516129d46101608601826129df565b508091505092915050565b6129e881612d8b565b82525050565b6129f781612d8b565b82525050565b6000612a08826127e0565b9150612a14828561276f565b9150612a1f82612820565b9150612a2b828461276f565b91508190509392505050565b6000602082019050612a4c60008301846125ee565b92915050565b60006020820190508181036000830152612a6c81846125fd565b905092915050565b60006020820190508181036000830152612a8e818461265b565b905092915050565b6000602082019050612aab60008301846126d0565b92915050565b6000602082019050612ac660008301846126df565b92915050565b60006020820190508181036000830152612ae68184612736565b905092915050565b60006020820190508181036000830152612b07816127a0565b9050919050565b60006020820190508181036000830152612b2781612860565b9050919050565b6000602082019050612b4360008301846129ee565b92915050565b6000604051905081810181811067ffffffffffffffff82111715612b7057612b6f612f1b565b5b8060405250919050565b600067ffffffffffffffff821115612b9557612b94612f1b565b5b601f19601f8301169050602081019050919050565b6000819050602082019050919050565b6000819050602082019050919050565b600081519050919050565b600081519050919050565b600081519050919050565b6000602082019050919050565b6000602082019050919050565b600082825260208201905092915050565b600082825260208201905092915050565b600082825260208201905092915050565b600082825260208201905092915050565b600081905092915050565b6000612c5f82612d8b565b9150612c6a83612d8b565b9250827fffffffffffffffffffffffffffffffffffffffffffffffffffffffffffffffff03821115612c9f57612c9e612e8e565b5b828201905092915050565b6000612cb582612d8b565b9150612cc083612d8b565b9250817fffffffffffffffffffffffffffffffffffffffffffffffffffffffffffffffff0483118215151615612cf957612cf8612e8e565b5b828202905092915050565b6000612d0f82612d6b565b9050919050565b60008115159050919050565b6000819050919050565b60007fffffffff0000000000000000000000000000000000000000000000000000000082169050919050565b6000819050612d6682612f5b565b919050565b600073ffffffffffffffffffffffffffffffffffffffff82169050919050565b6000819050919050565b6000612da082612d58565b9050919050565b82818337600083830152505050565b60005b83811015612dd4578082015181840152602081019050612db9565b83811115612de3576000848401525b50505050565b6000612df482612d8b565b91506000821415612e0857612e07612e8e565b5b600182039050919050565b60006002820490506001821680612e2b57607f821691505b60208210811415612e3f57612e3e612eec565b5b50919050565b6000612e5082612d8b565b91507fffffffffffffffffffffffffffffffffffffffffffffffffffffffffffffffff821415612e8357612e82612e8e565b5b600182019050919050565b7f4e487b7100000000000000000000000000000000000000000000000000000000600052601160045260246000fd5b7f4e487b7100000000000000000000000000000000000000000000000000000000600052602160045260246000fd5b7f4e487b7100000000000000000000000000000000000000000000000000000000600052602260045260246000fd5b7f4e487b7100000000000000000000000000000000000000000000000000000000600052604160045260246000fd5b6000601f19601f8301169050919050565b60038110612f6c57612f6b612ebd565b5b50565b612f7881612d04565b8114612f8357600080fd5b50565b612f8f81612d22565b8114612f9a57600080fd5b50565b612fa681612d2c565b8114612fb157600080fd5b50565b612fbd81612d8b565b8114612fc857600080fd5b5056fea264697066735822122093c7e9fca32249b9a1d01f2cdebed36886521c0f09bf573b12b11bcbe6cf3f3264736f6c63430008000033",
  "immutableReferences": {},
  "source": "pragma solidity ^0.8.0;\r\nimport \"@openzeppelin/contracts/access/AccessControl.sol\";\r\n\r\ncontract StructStorage is AccessControl {\r\n\r\n bytes32 public constant Admin_ROLE = keccak256(\"Admin\");\r\n bytes32 public constant Farmer_ROLE = keccak256(\"Farmer\");\r\n bytes32 public constant Tester_ROLE = keccak256(\"Tester\");\r\n bytes32 public constant Supplier_ROLE = keccak256(\"Supplier\");\r\n uint256 public s = 0; \r\n enum State{ Approved, Pending ,Declined}\r\n\r\nconstructor()  {\r\n        _setupRole(Admin_ROLE, msg.sender);\r\n    }\r\n\r\nstruct farmer {\r\n\r\n    uint product_id;\r\n    string fname;\r\n    string loc;\r\n    string crop;\r\n    uint256 contact;\r\n    uint quantity;\r\n    uint exprice;\r\n    State status;\r\n    string grade;\r\n    uint mrp;\r\n    uint testdate;\r\n    uint expdate;\r\n}\r\n\r\n\r\nstruct supplier {\r\n    //he can only buy approved product that doesn't exceeds expiration date\r\n\r\n    uint product_id;\r\n    string crop;\r\n    uint256 contact;\r\n    uint quantity;\r\n    uint price;\r\n    string grade;\r\n    uint expdate;\r\n}\r\n\r\n\r\nmapping (address => farmer[]) f1;\r\nmapping (address => supplier[]) s1;\r\naddress[] public farmers; // (farmers /suppliers) get updated once role is granted by admin(msg.sender)\r\naddress[] public suppliers;\r\n\r\nfunction grantRole(bytes32 role,address account) public override onlyRole(Admin_ROLE) {\r\n        _grantRole(role, account);\r\n        if (role == Farmer_ROLE)\r\n        farmers.push(account);\r\n        else if (role == Supplier_ROLE)\r\n        suppliers.push(account);\r\n    }\r\n\r\n\r\nfunction Produce(string memory name, string memory loc, string memory cr, uint con, uint q, uint pr) external onlyRole(Farmer_ROLE){\r\n        StructStorage.farmer memory fnew = farmer(s,name,loc,cr,con,q,pr,State.Pending,\"NaN\",0,0,0);\r\n        f1[msg.sender].push(fnew);\r\n        s++;\r\n  \r\n}\r\n    \r\n function getproduce(address f) public view returns(farmer [] memory ) {\r\n        return (f1[f]);\r\n    }\r\n\r\n    function getFarmers() public view returns(address [] memory ) {\r\n        return (farmers);\r\n    }\r\n    function getSuppliers() public view returns(address [] memory ) {\r\n        return (suppliers);\r\n    }\r\n function Approve(uint id ,address _farmer) external onlyRole(Tester_ROLE){\r\n        StructStorage.farmer memory product= f1[_farmer][id];\r\n        product.status=State.Approved;\r\n        f1[_farmer][id]=product;\r\n  \r\n }  \r\n \r\n function Buy(address _farmer , uint id ,uint price ,uint contact,uint qte) external onlyRole(Supplier_ROLE) payable {\r\n        StructStorage.farmer memory product= f1[_farmer][id];\r\n        require(msg.value >= product.exprice*qte );\r\n        require(product.expdate < block.timestamp && product.status == State.Approved && product.quantity >= qte) ;\r\n        StructStorage.supplier memory snew = supplier(product.product_id,product.crop,contact,qte,price,product.grade,product.expdate);\r\n        s1[msg.sender].push(snew);\r\n  \r\n}\r\n}",
  "sourcePath": "C:\\Users\\21692\\Desktop\\Agrochain\\contracts\\agrochain.sol",
  "compiler": {
    "name": "solc",
    "version": "0.8.0+commit.c7dfd78e.Emscripten.clang"
  },
  "schemaVersion": "3.4.3",
  "updatedAt": "2021-12-27T03:16:22.030Z",
  "devdoc": {
    "kind": "dev",
    "methods": {
      "getRoleAdmin(bytes32)": {
        "details": "Returns the admin role that controls `role`. See {grantRole} and {revokeRole}. To change a role's admin, use {_setRoleAdmin}."
      },
      "grantRole(bytes32,address)": {
        "details": "Grants `role` to `account`. If `account` had not been already granted `role`, emits a {RoleGranted} event. Requirements: - the caller must have ``role``'s admin role."
      },
      "hasRole(bytes32,address)": {
        "details": "Returns `true` if `account` has been granted `role`."
      },
      "renounceRole(bytes32,address)": {
        "details": "Revokes `role` from the calling account. Roles are often managed via {grantRole} and {revokeRole}: this function's purpose is to provide a mechanism for accounts to lose their privileges if they are compromised (such as when a trusted device is misplaced). If the calling account had been revoked `role`, emits a {RoleRevoked} event. Requirements: - the caller must be `account`."
      },
      "revokeRole(bytes32,address)": {
        "details": "Revokes `role` from `account`. If `account` had been granted `role`, emits a {RoleRevoked} event. Requirements: - the caller must have ``role``'s admin role."
      },
      "supportsInterface(bytes4)": {
        "details": "See {IERC165-supportsInterface}."
      }
    },
    "version": 1
  },
  "userdoc": {
    "kind": "user",
    "methods": {},
    "version": 1
  }
}